{
  "contractName": "CharacterSale",
  "abi": [
    {
      "inputs": [
        {
          "internalType": "address",
          "name": "_nftChar",
          "type": "address"
        },
        {
          "internalType": "uint256",
          "name": "_price",
          "type": "uint256"
        }
      ],
      "stateMutability": "nonpayable",
      "type": "constructor"
    },
    {
      "anonymous": false,
      "inputs": [
        {
          "indexed": true,
          "internalType": "address",
          "name": "previousOwner",
          "type": "address"
        },
        {
          "indexed": true,
          "internalType": "address",
          "name": "newOwner",
          "type": "address"
        }
      ],
      "name": "OwnershipTransferred",
      "type": "event"
    },
    {
      "inputs": [],
      "name": "owner",
      "outputs": [
        {
          "internalType": "address",
          "name": "",
          "type": "address"
        }
      ],
      "stateMutability": "view",
      "type": "function",
      "constant": true
    },
    {
      "inputs": [],
      "name": "price",
      "outputs": [
        {
          "internalType": "uint256",
          "name": "",
          "type": "uint256"
        }
      ],
      "stateMutability": "view",
      "type": "function",
      "constant": true
    },
    {
      "inputs": [],
      "name": "renounceOwnership",
      "outputs": [],
      "stateMutability": "nonpayable",
      "type": "function"
    },
    {
      "inputs": [
        {
          "internalType": "address",
          "name": "newOwner",
          "type": "address"
        }
      ],
      "name": "transferOwnership",
      "outputs": [],
      "stateMutability": "nonpayable",
      "type": "function"
    },
    {
      "inputs": [
        {
          "internalType": "uint256",
          "name": "_price",
          "type": "uint256"
        }
      ],
      "name": "setPrice",
      "outputs": [],
      "stateMutability": "nonpayable",
      "type": "function"
    },
    {
      "inputs": [],
      "name": "getPrice",
      "outputs": [
        {
          "internalType": "uint256",
          "name": "_price",
          "type": "uint256"
        }
      ],
      "stateMutability": "view",
      "type": "function",
      "constant": true
    },
    {
      "inputs": [],
      "name": "buyCharacter",
      "outputs": [],
      "stateMutability": "payable",
      "type": "function",
      "payable": true
    }
  ],
  "bytecode": "0x608060405234801561001057600080fd5b506040516104a03803806104a083398101604081905261002f916100b1565b61003833610061565b600180546001600160a01b0319166001600160a01b0393909316929092179091556002556100eb565b600080546001600160a01b038381166001600160a01b0319831681178455604051919092169283917f8be0079c531659141344cd1fd0a4f28419497f9722a3daafe3b4186f6b6457e09190a35050565b600080604083850312156100c457600080fd5b82516001600160a01b03811681146100db57600080fd5b6020939093015192949293505050565b6103a6806100fa6000396000f3fe6080604052600436106100705760003560e01c806398d5fdca1161004e57806398d5fdca146100d9578063a035b1fe146100f8578063bcece5eb1461010e578063f2fde38b1461011657600080fd5b8063715018a6146100755780638da5cb5b1461008c57806391b7f5ed146100b9575b600080fd5b34801561008157600080fd5b5061008a610136565b005b34801561009857600080fd5b506000546040516001600160a01b0390911681526020015b60405180910390f35b3480156100c557600080fd5b5061008a6100d4366004610327565b61014a565b3480156100e557600080fd5b506002545b6040519081526020016100b0565b34801561010457600080fd5b506100ea60025481565b61008a610157565b34801561012257600080fd5b5061008a610131366004610340565b6101ff565b61013e61027d565b61014860006102d7565b565b61015261027d565b600255565b600254341461016557600080fd5b600080546040516001600160a01b03909116913480156108fc02929091818181858888f1935050505015801561019f573d6000803e3d6000fd5b506001546040516340d097c360e01b81523360048201526001600160a01b03909116906340d097c390602401600060405180830381600087803b1580156101e557600080fd5b505af11580156101f9573d6000803e3d6000fd5b50505050565b61020761027d565b6001600160a01b0381166102715760405162461bcd60e51b815260206004820152602660248201527f4f776e61626c653a206e6577206f776e657220697320746865207a65726f206160448201526564647265737360d01b60648201526084015b60405180910390fd5b61027a816102d7565b50565b6000546001600160a01b031633146101485760405162461bcd60e51b815260206004820181905260248201527f4f776e61626c653a2063616c6c6572206973206e6f7420746865206f776e65726044820152606401610268565b600080546001600160a01b038381166001600160a01b0319831681178455604051919092169283917f8be0079c531659141344cd1fd0a4f28419497f9722a3daafe3b4186f6b6457e09190a35050565b60006020828403121561033957600080fd5b5035919050565b60006020828403121561035257600080fd5b81356001600160a01b038116811461036957600080fd5b939250505056fea264697066735822122065ce8974613f61a79fde0b7ba103e88dd358ba6320a413718218b432608c99be64736f6c63430008110033",
  "immutableReferences": {},
  "source": "// SPDX-License-Identifier: MIT\r\npragma solidity 0.8.17;\r\n\r\nimport \"@openzeppelin/contracts/access/Ownable.sol\";\r\nimport \"@openzeppelin/contracts/token/ERC721/IERC721.sol\";\r\n\r\ninterface ICharacterNFT is IERC721 {\r\n    function safeMint(address to) external;\r\n}\r\n\r\ncontract CharacterSale is Ownable {\r\n\r\n    ICharacterNFT private charToken;\r\n\r\n    uint256 public price;\r\n\r\n    constructor(address _nftChar, uint256 _price) {\r\n        charToken = ICharacterNFT(_nftChar);\r\n        price = _price;\r\n    }\r\n\r\n    function setPrice(uint256 _price) public onlyOwner {\r\n        price = _price;\r\n    }\r\n\r\n    function getPrice() public view returns (uint256 _price) {\r\n        return price;\r\n    }\r\n\r\n    function buyCharacter() public payable { \r\n        require(msg.value == price);\r\n        payable(owner()).transfer(msg.value);\r\n        charToken.safeMint(msg.sender);\r\n    }\r\n}",
  "sourcePath": "C:\\lucas_blockchain\\Web3Dev - Bootcamp\\NFT Game bootcamp\\epic-game\\Truffle\\contracts\\CharacterSale.sol",
  "compiler": {
    "name": "solc",
    "version": "0.8.17+commit.8df45f5f.Emscripten.clang"
  },
  "schemaVersion": "3.4.10",
  "updatedAt": "2022-11-18T16:09:20.575Z",
  "networkType": "ethereum",
  "devdoc": {
    "kind": "dev",
    "methods": {
      "owner()": {
        "details": "Returns the address of the current owner."
      },
      "renounceOwnership()": {
        "details": "Leaves the contract without owner. It will not be possible to call `onlyOwner` functions anymore. Can only be called by the current owner. NOTE: Renouncing ownership will leave the contract without an owner, thereby removing any functionality that is only available to the owner."
      },
      "transferOwnership(address)": {
        "details": "Transfers ownership of the contract to a new account (`newOwner`). Can only be called by the current owner."
      }
    },
    "version": 1
  },
  "userdoc": {
    "kind": "user",
    "methods": {},
    "version": 1
  }
}