{
  "contractName": "Character",
  "abi": [
    {
      "inputs": [
        {
          "internalType": "string[]",
          "name": "characterNames",
          "type": "string[]"
        },
        {
          "internalType": "string[]",
          "name": "characterImageURIs",
          "type": "string[]"
        },
        {
          "internalType": "uint256[]",
          "name": "characterHp",
          "type": "uint256[]"
        },
        {
          "internalType": "uint256[]",
          "name": "characterAttackDmg",
          "type": "uint256[]"
        }
      ],
      "stateMutability": "nonpayable",
      "type": "constructor"
    },
    {
      "anonymous": false,
      "inputs": [
        {
          "indexed": true,
          "internalType": "address",
          "name": "owner",
          "type": "address"
        },
        {
          "indexed": true,
          "internalType": "address",
          "name": "approved",
          "type": "address"
        },
        {
          "indexed": true,
          "internalType": "uint256",
          "name": "tokenId",
          "type": "uint256"
        }
      ],
      "name": "Approval",
      "type": "event"
    },
    {
      "anonymous": false,
      "inputs": [
        {
          "indexed": true,
          "internalType": "address",
          "name": "owner",
          "type": "address"
        },
        {
          "indexed": true,
          "internalType": "address",
          "name": "operator",
          "type": "address"
        },
        {
          "indexed": false,
          "internalType": "bool",
          "name": "approved",
          "type": "bool"
        }
      ],
      "name": "ApprovalForAll",
      "type": "event"
    },
    {
      "anonymous": false,
      "inputs": [
        {
          "indexed": true,
          "internalType": "bytes32",
          "name": "role",
          "type": "bytes32"
        },
        {
          "indexed": true,
          "internalType": "bytes32",
          "name": "previousAdminRole",
          "type": "bytes32"
        },
        {
          "indexed": true,
          "internalType": "bytes32",
          "name": "newAdminRole",
          "type": "bytes32"
        }
      ],
      "name": "RoleAdminChanged",
      "type": "event"
    },
    {
      "anonymous": false,
      "inputs": [
        {
          "indexed": true,
          "internalType": "bytes32",
          "name": "role",
          "type": "bytes32"
        },
        {
          "indexed": true,
          "internalType": "address",
          "name": "account",
          "type": "address"
        },
        {
          "indexed": true,
          "internalType": "address",
          "name": "sender",
          "type": "address"
        }
      ],
      "name": "RoleGranted",
      "type": "event"
    },
    {
      "anonymous": false,
      "inputs": [
        {
          "indexed": true,
          "internalType": "bytes32",
          "name": "role",
          "type": "bytes32"
        },
        {
          "indexed": true,
          "internalType": "address",
          "name": "account",
          "type": "address"
        },
        {
          "indexed": true,
          "internalType": "address",
          "name": "sender",
          "type": "address"
        }
      ],
      "name": "RoleRevoked",
      "type": "event"
    },
    {
      "anonymous": false,
      "inputs": [
        {
          "indexed": true,
          "internalType": "address",
          "name": "from",
          "type": "address"
        },
        {
          "indexed": true,
          "internalType": "address",
          "name": "to",
          "type": "address"
        },
        {
          "indexed": true,
          "internalType": "uint256",
          "name": "tokenId",
          "type": "uint256"
        }
      ],
      "name": "Transfer",
      "type": "event"
    },
    {
      "inputs": [],
      "name": "DEFAULT_ADMIN_ROLE",
      "outputs": [
        {
          "internalType": "bytes32",
          "name": "",
          "type": "bytes32"
        }
      ],
      "stateMutability": "view",
      "type": "function",
      "constant": true
    },
    {
      "inputs": [],
      "name": "GAME_ROLE",
      "outputs": [
        {
          "internalType": "bytes32",
          "name": "",
          "type": "bytes32"
        }
      ],
      "stateMutability": "view",
      "type": "function",
      "constant": true
    },
    {
      "inputs": [],
      "name": "MINTER_ROLE",
      "outputs": [
        {
          "internalType": "bytes32",
          "name": "",
          "type": "bytes32"
        }
      ],
      "stateMutability": "view",
      "type": "function",
      "constant": true
    },
    {
      "inputs": [
        {
          "internalType": "address",
          "name": "to",
          "type": "address"
        },
        {
          "internalType": "uint256",
          "name": "tokenId",
          "type": "uint256"
        }
      ],
      "name": "approve",
      "outputs": [],
      "stateMutability": "nonpayable",
      "type": "function"
    },
    {
      "inputs": [
        {
          "internalType": "address",
          "name": "owner",
          "type": "address"
        }
      ],
      "name": "balanceOf",
      "outputs": [
        {
          "internalType": "uint256",
          "name": "",
          "type": "uint256"
        }
      ],
      "stateMutability": "view",
      "type": "function",
      "constant": true
    },
    {
      "inputs": [
        {
          "internalType": "uint256",
          "name": "tokenId",
          "type": "uint256"
        }
      ],
      "name": "getApproved",
      "outputs": [
        {
          "internalType": "address",
          "name": "",
          "type": "address"
        }
      ],
      "stateMutability": "view",
      "type": "function",
      "constant": true
    },
    {
      "inputs": [
        {
          "internalType": "bytes32",
          "name": "role",
          "type": "bytes32"
        }
      ],
      "name": "getRoleAdmin",
      "outputs": [
        {
          "internalType": "bytes32",
          "name": "",
          "type": "bytes32"
        }
      ],
      "stateMutability": "view",
      "type": "function",
      "constant": true
    },
    {
      "inputs": [
        {
          "internalType": "bytes32",
          "name": "role",
          "type": "bytes32"
        },
        {
          "internalType": "address",
          "name": "account",
          "type": "address"
        }
      ],
      "name": "grantRole",
      "outputs": [],
      "stateMutability": "nonpayable",
      "type": "function"
    },
    {
      "inputs": [
        {
          "internalType": "bytes32",
          "name": "role",
          "type": "bytes32"
        },
        {
          "internalType": "address",
          "name": "account",
          "type": "address"
        }
      ],
      "name": "hasRole",
      "outputs": [
        {
          "internalType": "bool",
          "name": "",
          "type": "bool"
        }
      ],
      "stateMutability": "view",
      "type": "function",
      "constant": true
    },
    {
      "inputs": [
        {
          "internalType": "address",
          "name": "owner",
          "type": "address"
        },
        {
          "internalType": "address",
          "name": "operator",
          "type": "address"
        }
      ],
      "name": "isApprovedForAll",
      "outputs": [
        {
          "internalType": "bool",
          "name": "",
          "type": "bool"
        }
      ],
      "stateMutability": "view",
      "type": "function",
      "constant": true
    },
    {
      "inputs": [],
      "name": "name",
      "outputs": [
        {
          "internalType": "string",
          "name": "",
          "type": "string"
        }
      ],
      "stateMutability": "view",
      "type": "function",
      "constant": true
    },
    {
      "inputs": [
        {
          "internalType": "uint256",
          "name": "",
          "type": "uint256"
        }
      ],
      "name": "nftHolderAttributes",
      "outputs": [
        {
          "internalType": "uint256",
          "name": "characterIndex",
          "type": "uint256"
        },
        {
          "internalType": "string",
          "name": "name",
          "type": "string"
        },
        {
          "internalType": "string",
          "name": "imageURI",
          "type": "string"
        },
        {
          "internalType": "uint256",
          "name": "hp",
          "type": "uint256"
        },
        {
          "internalType": "uint256",
          "name": "maxHp",
          "type": "uint256"
        },
        {
          "internalType": "uint256",
          "name": "attackDamage",
          "type": "uint256"
        }
      ],
      "stateMutability": "view",
      "type": "function",
      "constant": true
    },
    {
      "inputs": [
        {
          "internalType": "address",
          "name": "",
          "type": "address"
        }
      ],
      "name": "nftHolders",
      "outputs": [
        {
          "internalType": "uint256",
          "name": "",
          "type": "uint256"
        }
      ],
      "stateMutability": "view",
      "type": "function",
      "constant": true
    },
    {
      "inputs": [
        {
          "internalType": "uint256",
          "name": "tokenId",
          "type": "uint256"
        }
      ],
      "name": "ownerOf",
      "outputs": [
        {
          "internalType": "address",
          "name": "",
          "type": "address"
        }
      ],
      "stateMutability": "view",
      "type": "function",
      "constant": true
    },
    {
      "inputs": [
        {
          "internalType": "bytes32",
          "name": "role",
          "type": "bytes32"
        },
        {
          "internalType": "address",
          "name": "account",
          "type": "address"
        }
      ],
      "name": "renounceRole",
      "outputs": [],
      "stateMutability": "nonpayable",
      "type": "function"
    },
    {
      "inputs": [
        {
          "internalType": "bytes32",
          "name": "role",
          "type": "bytes32"
        },
        {
          "internalType": "address",
          "name": "account",
          "type": "address"
        }
      ],
      "name": "revokeRole",
      "outputs": [],
      "stateMutability": "nonpayable",
      "type": "function"
    },
    {
      "inputs": [
        {
          "internalType": "address",
          "name": "from",
          "type": "address"
        },
        {
          "internalType": "address",
          "name": "to",
          "type": "address"
        },
        {
          "internalType": "uint256",
          "name": "tokenId",
          "type": "uint256"
        }
      ],
      "name": "safeTransferFrom",
      "outputs": [],
      "stateMutability": "nonpayable",
      "type": "function"
    },
    {
      "inputs": [
        {
          "internalType": "address",
          "name": "from",
          "type": "address"
        },
        {
          "internalType": "address",
          "name": "to",
          "type": "address"
        },
        {
          "internalType": "uint256",
          "name": "tokenId",
          "type": "uint256"
        },
        {
          "internalType": "bytes",
          "name": "data",
          "type": "bytes"
        }
      ],
      "name": "safeTransferFrom",
      "outputs": [],
      "stateMutability": "nonpayable",
      "type": "function"
    },
    {
      "inputs": [
        {
          "internalType": "address",
          "name": "operator",
          "type": "address"
        },
        {
          "internalType": "bool",
          "name": "approved",
          "type": "bool"
        }
      ],
      "name": "setApprovalForAll",
      "outputs": [],
      "stateMutability": "nonpayable",
      "type": "function"
    },
    {
      "inputs": [],
      "name": "symbol",
      "outputs": [
        {
          "internalType": "string",
          "name": "",
          "type": "string"
        }
      ],
      "stateMutability": "view",
      "type": "function",
      "constant": true
    },
    {
      "inputs": [
        {
          "internalType": "address",
          "name": "from",
          "type": "address"
        },
        {
          "internalType": "address",
          "name": "to",
          "type": "address"
        },
        {
          "internalType": "uint256",
          "name": "tokenId",
          "type": "uint256"
        }
      ],
      "name": "transferFrom",
      "outputs": [],
      "stateMutability": "nonpayable",
      "type": "function"
    },
    {
      "inputs": [
        {
          "internalType": "address",
          "name": "_to",
          "type": "address"
        }
      ],
      "name": "safeMint",
      "outputs": [],
      "stateMutability": "nonpayable",
      "type": "function"
    },
    {
      "inputs": [
        {
          "internalType": "uint256",
          "name": "_tokenId",
          "type": "uint256"
        }
      ],
      "name": "tokenURI",
      "outputs": [
        {
          "internalType": "string",
          "name": "",
          "type": "string"
        }
      ],
      "stateMutability": "view",
      "type": "function",
      "constant": true
    },
    {
      "inputs": [
        {
          "internalType": "address",
          "name": "_from",
          "type": "address"
        },
        {
          "internalType": "uint256",
          "name": "damage",
          "type": "uint256"
        }
      ],
      "name": "receiveDamage",
      "outputs": [],
      "stateMutability": "nonpayable",
      "type": "function"
    },
    {
      "inputs": [
        {
          "internalType": "address",
          "name": "_from",
          "type": "address"
        }
      ],
      "name": "healMyCat",
      "outputs": [],
      "stateMutability": "nonpayable",
      "type": "function"
    },
    {
      "inputs": [
        {
          "internalType": "address",
          "name": "_from",
          "type": "address"
        }
      ],
      "name": "getNFT",
      "outputs": [
        {
          "components": [
            {
              "internalType": "uint256",
              "name": "characterIndex",
              "type": "uint256"
            },
            {
              "internalType": "string",
              "name": "name",
              "type": "string"
            },
            {
              "internalType": "string",
              "name": "imageURI",
              "type": "string"
            },
            {
              "internalType": "uint256",
              "name": "hp",
              "type": "uint256"
            },
            {
              "internalType": "uint256",
              "name": "maxHp",
              "type": "uint256"
            },
            {
              "internalType": "uint256",
              "name": "attackDamage",
              "type": "uint256"
            }
          ],
          "internalType": "struct Character.CharacterAttributes",
          "name": "char",
          "type": "tuple"
        }
      ],
      "stateMutability": "view",
      "type": "function",
      "constant": true
    },
    {
      "inputs": [
        {
          "internalType": "address",
          "name": "_from",
          "type": "address"
        }
      ],
      "name": "getNFTAttributesByAddress",
      "outputs": [
        {
          "internalType": "uint256",
          "name": "hp",
          "type": "uint256"
        },
        {
          "internalType": "uint256",
          "name": "attackDamage",
          "type": "uint256"
        }
      ],
      "stateMutability": "view",
      "type": "function",
      "constant": true
    },
    {
      "inputs": [
        {
          "internalType": "bytes4",
          "name": "interfaceId",
          "type": "bytes4"
        }
      ],
      "name": "supportsInterface",
      "outputs": [
        {
          "internalType": "bool",
          "name": "",
          "type": "bool"
        }
      ],
      "stateMutability": "view",
      "type": "function",
      "constant": true
    }
  ],
  "bytecode": "0x60806040523480156200001157600080fd5b5060405162002f7e38038062002f7e83398101604081905262000034916200051b565b6040518060400160405280600981526020016821b430b930b1ba32b960b91b8152506040518060400160405280600481526020016321a420a960e11b815250816000908162000084919062000663565b50600162000093828262000663565b50620000a5915060009050336200026d565b620000d17f9f2df0fed2c77648de5860a4cc508cd0818c85b8b8a1ab4ceeef8d981c8956a6336200026d565b620000fd7f6a64baf327d646d1bca72653e2a075d15fd6ac6d8cbd7f6ee03fc55875e0fa88336200026d565b60005b84518110156200024b5760086040518060c001604052808381526020018784815181106200013257620001326200072f565b602002602001015181526020018684815181106200015457620001546200072f565b602002602001015181526020018584815181106200017657620001766200072f565b602002602001015181526020018584815181106200019857620001986200072f565b60200260200101518152602001848481518110620001ba57620001ba6200072f565b6020908102919091018101519091528254600181810185556000948552938290208351600690920201908155908201519192909190820190620001fe908262000663565b506040820151600282019062000215908262000663565b50606082015160038201556080820151600482015560a0909101516005909101556200024360018262000745565b905062000100565b50620002636007620002f860201b620010721760201c565b5050505062000767565b62000279828262000301565b620002f45760008281526006602090815260408083206001600160a01b03851684529091529020805460ff19166001179055620002b33390565b6001600160a01b0316816001600160a01b0316837f2f8788117e7eff1d82e926ec794901d17c78024a50270940304540a733656f0d60405160405180910390a45b5050565b80546001019055565b60008281526006602090815260408083206001600160a01b038516845290915290205460ff165b92915050565b634e487b7160e01b600052604160045260246000fd5b604051601f8201601f191681016001600160401b03811182821017156200036f576200036f6200032e565b604052919050565b60006001600160401b038211156200039357620003936200032e565b5060051b60200190565b6000601f8381840112620003b057600080fd5b82516020620003c9620003c38362000377565b62000344565b82815260059290921b85018101918181019087841115620003e957600080fd5b8287015b84811015620004a25780516001600160401b03808211156200040f5760008081fd5b818a0191508a603f830112620004255760008081fd5b85820151818111156200043c576200043c6200032e565b6200044f818a01601f1916880162000344565b915080825260408c81838601011115620004695760008081fd5b60005b8281101562000489578481018201518482018a015288016200046c565b50506000908201870152845250918301918301620003ed565b50979650505050505050565b600082601f830112620004c057600080fd5b81516020620004d3620003c38362000377565b82815260059290921b84018101918181019086841115620004f357600080fd5b8286015b84811015620005105780518352918301918301620004f7565b509695505050505050565b600080600080608085870312156200053257600080fd5b84516001600160401b03808211156200054a57600080fd5b62000558888389016200039d565b955060208701519150808211156200056f57600080fd5b6200057d888389016200039d565b945060408701519150808211156200059457600080fd5b620005a288838901620004ae565b93506060870151915080821115620005b957600080fd5b50620005c887828801620004ae565b91505092959194509250565b600181811c90821680620005e957607f821691505b6020821081036200060a57634e487b7160e01b600052602260045260246000fd5b50919050565b601f8211156200065e57600081815260208120601f850160051c81016020861015620006395750805b601f850160051c820191505b818110156200065a5782815560010162000645565b5050505b505050565b81516001600160401b038111156200067f576200067f6200032e565b6200069781620006908454620005d4565b8462000610565b602080601f831160018114620006cf5760008415620006b65750858301515b600019600386901b1c1916600185901b1785556200065a565b600085815260208120601f198616915b828110156200070057888601518255948401946001909101908401620006df565b50858210156200071f5787850151600019600388901b60f8161c191681555b5050505050600190811b01905550565b634e487b7160e01b600052603260045260246000fd5b808201808211156200032857634e487b7160e01b600052601160045260246000fd5b61280780620007776000396000f3fe608060405234801561001057600080fd5b50600436106101c45760003560e01c806370a08231116100f9578063ab40070611610097578063d0b5215411610071578063d0b521541461044d578063d539139314610460578063d547741f14610487578063e985e9c51461049a57600080fd5b8063ab40070614610400578063b88d4fde14610427578063c87b56dd1461043a57600080fd5b806395d89b41116100d357806395d89b41146103b857806398da4c95146103c0578063a217fddf146103e5578063a22cb465146103ed57600080fd5b806370a08231146103725780637df124a11461038557806391d14854146103a557600080fd5b8063248a9ca31161016657806340d097c31161014057806340d097c31461032657806342842e0e14610339578063566a984c1461034c5780636352211e1461035f57600080fd5b8063248a9ca3146102cf5780632f2ff15d1461030057806336568abe1461031357600080fd5b8063095ea7b3116101a2578063095ea7b314610231578063161a6c1e146102465780631f37cb901461026657806323b872dd146102bc57600080fd5b806301ffc9a7146101c957806306fdde03146101f1578063081812fc14610206575b600080fd5b6101dc6101d7366004611e34565b6104d6565b60405190151581526020015b60405180910390f35b6101f96104e7565b6040516101e89190611ea1565b610219610214366004611eb4565b610579565b6040516001600160a01b0390911681526020016101e8565b61024461023f366004611ee9565b6105a0565b005b610259610254366004611f13565b6106ba565b6040516101e89190611f2e565b6102a7610274366004611f13565b6001600160a01b03166000908152600a602090815260408083205483526009909152902060038101546005909101549091565b604080519283526020830191909152016101e8565b6102446102ca366004611f9c565b610873565b6102f26102dd366004611eb4565b60009081526006602052604090206001015490565b6040519081526020016101e8565b61024461030e366004611fd8565b6108a4565b610244610321366004611fd8565b6108c9565b610244610334366004611f13565b610947565b610244610347366004611f9c565b610a9d565b61024461035a366004611ee9565b610ab8565b61021961036d366004611eb4565b610b3e565b6102f2610380366004611f13565b610b9e565b6102f2610393366004611f13565b600a6020526000908152604090205481565b6101dc6103b3366004611fd8565b610c24565b6101f9610c4f565b6103d36103ce366004611eb4565b610c5e565b6040516101e896959493929190612004565b6102f2600081565b6102446103fb36600461204e565b610da3565b6102f27f6a64baf327d646d1bca72653e2a075d15fd6ac6d8cbd7f6ee03fc55875e0fa8881565b6102446104353660046120a0565b610dae565b6101f9610448366004611eb4565b610de0565b61024461045b366004611f13565b610ff1565b6102f27f9f2df0fed2c77648de5860a4cc508cd0818c85b8b8a1ab4ceeef8d981c8956a681565b610244610495366004611fd8565b61104d565b6101dc6104a836600461217c565b6001600160a01b03918216600090815260056020908152604080832093909416825291909152205460ff1690565b60006104e18261107b565b92915050565b6060600080546104f6906121a6565b80601f0160208091040260200160405190810160405280929190818152602001828054610522906121a6565b801561056f5780601f106105445761010080835404028352916020019161056f565b820191906000526020600020905b81548152906001019060200180831161055257829003601f168201915b5050505050905090565b6000610584826110a0565b506000908152600460205260409020546001600160a01b031690565b60006105ab82610b3e565b9050806001600160a01b0316836001600160a01b03160361061d5760405162461bcd60e51b815260206004820152602160248201527f4552433732313a20617070726f76616c20746f2063757272656e74206f776e656044820152603960f91b60648201526084015b60405180910390fd5b336001600160a01b0382161480610639575061063981336104a8565b6106ab5760405162461bcd60e51b815260206004820152603d60248201527f4552433732313a20617070726f76652063616c6c6572206973206e6f7420746f60448201527f6b656e206f776e6572206f7220617070726f76656420666f7220616c6c0000006064820152608401610614565b6106b58383611102565b505050565b6106f36040518060c001604052806000815260200160608152602001606081526020016000815260200160008152602001600081525090565b6001600160a01b0382166000908152600a602090815260408083205483526009825291829020825160c0810190935280548352600181018054919284019161073a906121a6565b80601f0160208091040260200160405190810160405280929190818152602001828054610766906121a6565b80156107b35780601f10610788576101008083540402835291602001916107b3565b820191906000526020600020905b81548152906001019060200180831161079657829003601f168201915b505050505081526020016002820180546107cc906121a6565b80601f01602080910402602001604051908101604052809291908181526020018280546107f8906121a6565b80156108455780601f1061081a57610100808354040283529160200191610845565b820191906000526020600020905b81548152906001019060200180831161082857829003601f168201915b5050505050815260200160038201548152602001600482015481526020016005820154815250509050919050565b61087d3382611170565b6108995760405162461bcd60e51b8152600401610614906121e0565b6106b58383836111ef565b6000828152600660205260409020600101546108bf81611360565b6106b5838361136a565b6001600160a01b03811633146109395760405162461bcd60e51b815260206004820152602f60248201527f416363657373436f6e74726f6c3a2063616e206f6e6c792072656e6f756e636560448201526e103937b632b9903337b91039b2b63360891b6064820152608401610614565b61094382826113f0565b5050565b7f9f2df0fed2c77648de5860a4cc508cd0818c85b8b8a1ab4ceeef8d981c8956a661097181611360565b61097a82610b9e565b156109c75760405162461bcd60e51b815260206004820152601c60248201527f596f75206d7573742068617665206a757374206f6e6520434841522e000000006044820152606401610614565b60006109d260075490565b90506109e2600780546001019055565b6109ec8382611457565b60086109f6611471565b81548110610a0657610a0661222d565b600091825260208083208484526009909152604090922060069091029091018054825590600180820190610a3c90840182612291565b50600281810190610a4f90840182612291565b50600382810154908201556004808301549082015560059182015491015560008181526009602090815260408083208490556001600160a01b039095168252600a9052929092209190915550565b6106b583838360405180602001604052806000815250610dae565b7f6a64baf327d646d1bca72653e2a075d15fd6ac6d8cbd7f6ee03fc55875e0fa88610ae281611360565b6001600160a01b0383166000908152600a602090815260408083205483526009909152902060038101548310610b1e5760006003820155610b38565b82816003016000828254610b329190612388565b90915550505b50505050565b6000818152600260205260408120546001600160a01b0316806104e15760405162461bcd60e51b8152602060048201526018602482015277115490cdcc8c4e881a5b9d985b1a59081d1bdad95b88125160421b6044820152606401610614565b60006001600160a01b038216610c085760405162461bcd60e51b815260206004820152602960248201527f4552433732313a2061646472657373207a65726f206973206e6f7420612076616044820152683634b21037bbb732b960b91b6064820152608401610614565b506001600160a01b031660009081526003602052604090205490565b60009182526006602090815260408084206001600160a01b0393909316845291905290205460ff1690565b6060600180546104f6906121a6565b60096020526000908152604090208054600182018054919291610c80906121a6565b80601f0160208091040260200160405190810160405280929190818152602001828054610cac906121a6565b8015610cf95780601f10610cce57610100808354040283529160200191610cf9565b820191906000526020600020905b815481529060010190602001808311610cdc57829003601f168201915b505050505090806002018054610d0e906121a6565b80601f0160208091040260200160405190810160405280929190818152602001828054610d3a906121a6565b8015610d875780601f10610d5c57610100808354040283529160200191610d87565b820191906000526020600020905b815481529060010190602001808311610d6a57829003601f168201915b5050505050908060030154908060040154908060050154905086565b6109433383836114b7565b610db83383611170565b610dd45760405162461bcd60e51b8152600401610614906121e0565b610b3884848484611585565b6000818152600960209081526040808320815160c08101909252805482526001810180546060959484019190610e15906121a6565b80601f0160208091040260200160405190810160405280929190818152602001828054610e41906121a6565b8015610e8e5780601f10610e6357610100808354040283529160200191610e8e565b820191906000526020600020905b815481529060010190602001808311610e7157829003601f168201915b50505050508152602001600282018054610ea7906121a6565b80601f0160208091040260200160405190810160405280929190818152602001828054610ed3906121a6565b8015610f205780601f10610ef557610100808354040283529160200191610f20565b820191906000526020600020905b815481529060010190602001808311610f0357829003601f168201915b50505050508152602001600382015481526020016004820154815260200160058201548152505090506000610f5882606001516115b8565b90506000610f6983608001516115b8565b90506000610f7a8460a001516115b8565b90506000610fc08560200151610f8f896115b8565b8760400151878787604051602001610fac969594939291906123b7565b60405160208183030381529060405261164b565b9050600081604051602001610fd59190612567565b60408051601f1981840301815291905298975050505050505050565b7f6a64baf327d646d1bca72653e2a075d15fd6ac6d8cbd7f6ee03fc55875e0fa8861101b81611360565b506001600160a01b03166000908152600a60209081526040808320548352600990915290206004810154600390910155565b60008281526006602052604090206001015461106881611360565b6106b583836113f0565b80546001019055565b60006001600160e01b03198216637965db0b60e01b14806104e157506104e18261179e565b6000818152600260205260409020546001600160a01b03166110ff5760405162461bcd60e51b8152602060048201526018602482015277115490cdcc8c4e881a5b9d985b1a59081d1bdad95b88125160421b6044820152606401610614565b50565b600081815260046020526040902080546001600160a01b0319166001600160a01b038416908117909155819061113782610b3e565b6001600160a01b03167f8c5be1e5ebec7d5bd14f71427d1e84f3dd0314c0f7b2291e5b200ac8c7c3b92560405160405180910390a45050565b60008061117c83610b3e565b9050806001600160a01b0316846001600160a01b031614806111c357506001600160a01b0380821660009081526005602090815260408083209388168352929052205460ff165b806111e75750836001600160a01b03166111dc84610579565b6001600160a01b0316145b949350505050565b826001600160a01b031661120282610b3e565b6001600160a01b0316146112285760405162461bcd60e51b8152600401610614906125ac565b6001600160a01b03821661128a5760405162461bcd60e51b8152602060048201526024808201527f4552433732313a207472616e7366657220746f20746865207a65726f206164646044820152637265737360e01b6064820152608401610614565b61129783838360016117ee565b826001600160a01b03166112aa82610b3e565b6001600160a01b0316146112d05760405162461bcd60e51b8152600401610614906125ac565b600081815260046020908152604080832080546001600160a01b03199081169091556001600160a01b0387811680865260038552838620805460001901905590871680865283862080546001019055868652600290945282852080549092168417909155905184937fddf252ad1be2c89b69c2b068fc378daa952ba7f163c4a11628f55a4df523b3ef91a4505050565b6110ff813361186b565b6113748282610c24565b6109435760008281526006602090815260408083206001600160a01b03851684529091529020805460ff191660011790556113ac3390565b6001600160a01b0316816001600160a01b0316837f2f8788117e7eff1d82e926ec794901d17c78024a50270940304540a733656f0d60405160405180910390a45050565b6113fa8282610c24565b156109435760008281526006602090815260408083206001600160a01b0385168085529252808320805460ff1916905551339285917ff6391f5c32d9c69d2a47ea670b442974b53935d1edc7fd64eb21e047a839171b9190a45050565b6109438282604051806020016040528060008152506118c4565b60085460408051446020808301919091524282840152606080830185905283518084039091018152608090920190925280519101206000916114b291612607565b905090565b816001600160a01b0316836001600160a01b0316036115185760405162461bcd60e51b815260206004820152601960248201527f4552433732313a20617070726f766520746f2063616c6c6572000000000000006044820152606401610614565b6001600160a01b03838116600081815260056020908152604080832094871680845294825291829020805460ff191686151590811790915591519182527f17307eab39ab6107e8899845ad3d59bd9653f200f220920489ca2b5937696c31910160405180910390a3505050565b6115908484846111ef565b61159c848484846118f7565b610b385760405162461bcd60e51b81526004016106149061261b565b606060006115c5836119f8565b600101905060008167ffffffffffffffff8111156115e5576115e561208a565b6040519080825280601f01601f19166020018201604052801561160f576020820181803683370190505b5090508181016020015b600019016f181899199a1a9b1b9c1cb0b131b232b360811b600a86061a8153600a850494508461161957509392505050565b6060815160000361166a57505060408051602081019091526000815290565b60006040518060600160405280604081526020016127926040913990506000600384516002611699919061266d565b6116a39190612680565b6116ae906004612694565b67ffffffffffffffff8111156116c6576116c661208a565b6040519080825280601f01601f1916602001820160405280156116f0576020820181803683370190505b509050600182016020820185865187015b8082101561175c576003820191508151603f8160121c168501518453600184019350603f81600c1c168501518453600184019350603f8160061c168501518453600184019350603f8116850151845350600183019250611701565b5050600386510660018114611778576002811461178b57611793565b603d6001830353603d6002830353611793565b603d60018303535b509195945050505050565b60006001600160e01b031982166380ac58cd60e01b14806117cf57506001600160e01b03198216635b5e139f60e01b145b806104e157506301ffc9a760e01b6001600160e01b03198316146104e1565b6001811115610b38576001600160a01b03841615611834576001600160a01b0384166000908152600360205260408120805483929061182e908490612388565b90915550505b6001600160a01b03831615610b38576001600160a01b03831660009081526003602052604081208054839290610b3290849061266d565b6118758282610c24565b6109435761188281611ad0565b61188d836020611ae2565b60405160200161189e9291906126ab565b60408051601f198184030181529082905262461bcd60e51b825261061491600401611ea1565b6118ce8383611c85565b6118db60008484846118f7565b6106b55760405162461bcd60e51b81526004016106149061261b565b60006001600160a01b0384163b156119ed57604051630a85bd0160e11b81526001600160a01b0385169063150b7a029061193b903390899088908890600401612720565b6020604051808303816000875af1925050508015611976575060408051601f3d908101601f191682019092526119739181019061275d565b60015b6119d3573d8080156119a4576040519150601f19603f3d011682016040523d82523d6000602084013e6119a9565b606091505b5080516000036119cb5760405162461bcd60e51b81526004016106149061261b565b805181602001fd5b6001600160e01b031916630a85bd0160e11b1490506111e7565b506001949350505050565b60008072184f03e93ff9f4daa797ed6e38ed64bf6a1f0160401b8310611a375772184f03e93ff9f4daa797ed6e38ed64bf6a1f0160401b830492506040015b6d04ee2d6d415b85acef81000000008310611a63576d04ee2d6d415b85acef8100000000830492506020015b662386f26fc100008310611a8157662386f26fc10000830492506010015b6305f5e1008310611a99576305f5e100830492506008015b6127108310611aad57612710830492506004015b60648310611abf576064830492506002015b600a83106104e15760010192915050565b60606104e16001600160a01b03831660145b60606000611af1836002612694565b611afc90600261266d565b67ffffffffffffffff811115611b1457611b1461208a565b6040519080825280601f01601f191660200182016040528015611b3e576020820181803683370190505b509050600360fc1b81600081518110611b5957611b5961222d565b60200101906001600160f81b031916908160001a905350600f60fb1b81600181518110611b8857611b8861222d565b60200101906001600160f81b031916908160001a9053506000611bac846002612694565b611bb790600161266d565b90505b6001811115611c2f576f181899199a1a9b1b9c1cb0b131b232b360811b85600f1660108110611beb57611beb61222d565b1a60f81b828281518110611c0157611c0161222d565b60200101906001600160f81b031916908160001a90535060049490941c93611c288161277a565b9050611bba565b508315611c7e5760405162461bcd60e51b815260206004820181905260248201527f537472696e67733a20686578206c656e67746820696e73756666696369656e746044820152606401610614565b9392505050565b6001600160a01b038216611cdb5760405162461bcd60e51b815260206004820181905260248201527f4552433732313a206d696e7420746f20746865207a65726f20616464726573736044820152606401610614565b6000818152600260205260409020546001600160a01b031615611d405760405162461bcd60e51b815260206004820152601c60248201527f4552433732313a20746f6b656e20616c7265616479206d696e746564000000006044820152606401610614565b611d4e6000838360016117ee565b6000818152600260205260409020546001600160a01b031615611db35760405162461bcd60e51b815260206004820152601c60248201527f4552433732313a20746f6b656e20616c7265616479206d696e746564000000006044820152606401610614565b6001600160a01b038216600081815260036020908152604080832080546001019055848352600290915280822080546001600160a01b0319168417905551839291907fddf252ad1be2c89b69c2b068fc378daa952ba7f163c4a11628f55a4df523b3ef908290a45050565b6001600160e01b0319811681146110ff57600080fd5b600060208284031215611e4657600080fd5b8135611c7e81611e1e565b60005b83811015611e6c578181015183820152602001611e54565b50506000910152565b60008151808452611e8d816020860160208601611e51565b601f01601f19169290920160200192915050565b602081526000611c7e6020830184611e75565b600060208284031215611ec657600080fd5b5035919050565b80356001600160a01b0381168114611ee457600080fd5b919050565b60008060408385031215611efc57600080fd5b611f0583611ecd565b946020939093013593505050565b600060208284031215611f2557600080fd5b611c7e82611ecd565b60208152815160208201526000602083015160c06040840152611f5460e0840182611e75565b90506040840151601f19848303016060850152611f718282611e75565b91505060608401516080840152608084015160a084015260a084015160c08401528091505092915050565b600080600060608486031215611fb157600080fd5b611fba84611ecd565b9250611fc860208501611ecd565b9150604084013590509250925092565b60008060408385031215611feb57600080fd5b82359150611ffb60208401611ecd565b90509250929050565b86815260c06020820152600061201d60c0830188611e75565b828103604084015261202f8188611e75565b60608401969096525050608081019290925260a0909101529392505050565b6000806040838503121561206157600080fd5b61206a83611ecd565b91506020830135801515811461207f57600080fd5b809150509250929050565b634e487b7160e01b600052604160045260246000fd5b600080600080608085870312156120b657600080fd5b6120bf85611ecd565b93506120cd60208601611ecd565b925060408501359150606085013567ffffffffffffffff808211156120f157600080fd5b818701915087601f83011261210557600080fd5b8135818111156121175761211761208a565b604051601f8201601f19908116603f0116810190838211818310171561213f5761213f61208a565b816040528281528a602084870101111561215857600080fd5b82602086016020830137600060208483010152809550505050505092959194509250565b6000806040838503121561218f57600080fd5b61219883611ecd565b9150611ffb60208401611ecd565b600181811c908216806121ba57607f821691505b6020821081036121da57634e487b7160e01b600052602260045260246000fd5b50919050565b6020808252602d908201527f4552433732313a2063616c6c6572206973206e6f7420746f6b656e206f776e6560408201526c1c881bdc88185c1c1c9bdd9959609a1b606082015260800190565b634e487b7160e01b600052603260045260246000fd5b601f8211156106b557600081815260208120601f850160051c8101602086101561226a5750805b601f850160051c820191505b8181101561228957828155600101612276565b505050505050565b81810361229c575050565b6122a682546121a6565b67ffffffffffffffff8111156122be576122be61208a565b6122d2816122cc84546121a6565b84612243565b6000601f82116001811461230657600083156122ee5750848201545b600019600385901b1c1916600184901b17845561236b565b600085815260209020601f19841690600086815260209020845b838110156123405782860154825560019586019590910190602001612320565b508583101561235e5781850154600019600388901b60f8161c191681555b50505060018360011b0184555b5050505050565b634e487b7160e01b600052601160045260246000fd5b818103818111156104e1576104e1612372565b600081516123ad818560208601611e51565b9290920192915050565b693d913730b6b2911d101160b11b815286516000906123dd81600a850160208c01611e51565b6a01016969027232a10119d160ad1b600a918401918201528751612408816015840160208c01611e51565b7f222c20226465736372697074696f6e223a202245737461204e46542064612061601592909101918201527f636573736f20616f206d6575206a6f676f204e465421222c2022696d616765226035820152621d101160e91b60558201528651612478816058840160208b01611e51565b7f222c202261747472696275746573223a205b207b202274726169745f74797065605892909101918201527f223a20224865616c746820506f696e7473222c202276616c7565223a20000000607882015261255a61254a6125446125056124ff6124e5609587018c61239b565b6d16101136b0bc2fbb30b63ab2911d60911b8152600e0190565b8961239b565b7f7d2c207b202274726169745f74797065223a202241747461636b2044616d616781526c032911610113b30b63ab2911d1609d1b6020820152602d0190565b8661239b565b637d205d7d60e01b815260040190565b9998505050505050505050565b7f646174613a6170706c69636174696f6e2f6a736f6e3b6261736536342c00000081526000825161259f81601d850160208701611e51565b91909101601d0192915050565b60208082526025908201527f4552433732313a207472616e736665722066726f6d20696e636f72726563742060408201526437bbb732b960d91b606082015260800190565b634e487b7160e01b600052601260045260246000fd5b600082612616576126166125f1565b500690565b60208082526032908201527f4552433732313a207472616e7366657220746f206e6f6e20455243373231526560408201527131b2b4bb32b91034b6b83632b6b2b73a32b960711b606082015260800190565b808201808211156104e1576104e1612372565b60008261268f5761268f6125f1565b500490565b80820281158282048414176104e1576104e1612372565b7f416363657373436f6e74726f6c3a206163636f756e74200000000000000000008152600083516126e3816017850160208801611e51565b7001034b99036b4b9b9b4b733903937b6329607d1b6017918401918201528351612714816028840160208801611e51565b01602801949350505050565b6001600160a01b038581168252841660208201526040810183905260806060820181905260009061275390830184611e75565b9695505050505050565b60006020828403121561276f57600080fd5b8151611c7e81611e1e565b60008161278957612789612372565b50600019019056fe4142434445464748494a4b4c4d4e4f505152535455565758595a6162636465666768696a6b6c6d6e6f707172737475767778797a303132333435363738392b2fa2646970667358221220c80b24f9903afbab1f2f05d9e411e8380beee759d59d5b0b8fe6c7249ecd2ee364736f6c63430008110033",
  "immutableReferences": {},
  "source": "// SPDX-License-Identifier: MIT\r\npragma solidity 0.8.17;\r\n\r\nimport \"@openzeppelin/contracts/token/ERC721/ERC721.sol\";\r\nimport \"@openzeppelin/contracts/access/AccessControl.sol\";\r\nimport \"@openzeppelin/contracts/utils/Counters.sol\";\r\nimport \"@openzeppelin/contracts/utils/Base64.sol\";\r\n\r\ncontract Character is ERC721, AccessControl {\r\n    using Counters for Counters.Counter;\r\n\r\n    bytes32 public constant MINTER_ROLE = keccak256(\"MINTER_ROLE\");\r\n    bytes32 public constant GAME_ROLE = keccak256(\"GAME_ROLE\");\r\n    Counters.Counter private _tokenIdCounter;\r\n\r\n    struct CharacterAttributes {\r\n        uint256 characterIndex;\r\n        string name;\r\n        string imageURI;\r\n        uint256 hp;\r\n        uint256 maxHp;\r\n        uint256 attackDamage;\r\n    }\r\n\r\n    struct BigBoss {\r\n        string name;\r\n        string imageURI;\r\n        uint256 hp;\r\n        uint256 maxHp;\r\n        uint256 attackDamage;\r\n    }\r\n\r\n    CharacterAttributes[] defaultCharacters;\r\n\r\n    mapping(uint256 => CharacterAttributes) public nftHolderAttributes;\r\n    mapping(address => uint256) public nftHolders;\r\n\r\n    constructor(\r\n        string[] memory characterNames,\r\n        string[] memory characterImageURIs,\r\n        uint256[] memory characterHp,\r\n        uint256[] memory characterAttackDmg\r\n    ) ERC721(\"Character\", \"CHAR\") {\r\n        _grantRole(DEFAULT_ADMIN_ROLE, msg.sender);\r\n        _grantRole(MINTER_ROLE, msg.sender);\r\n        _grantRole(GAME_ROLE, msg.sender);\r\n\r\n        for (uint256 i = 0; i < characterNames.length; i += 1) {\r\n            defaultCharacters.push(\r\n                CharacterAttributes({\r\n                    characterIndex: i,\r\n                    name: characterNames[i],\r\n                    imageURI: characterImageURIs[i],\r\n                    hp: characterHp[i],\r\n                    maxHp: characterHp[i],\r\n                    attackDamage: characterAttackDmg[i]\r\n                })\r\n            );\r\n        }\r\n\r\n        // Increment counter to initialize with id 1\r\n        _tokenIdCounter.increment();\r\n    }\r\n\r\n    function safeMint(address _to) public onlyRole(MINTER_ROLE) {\r\n        require(balanceOf(_to) == 0, \"You must have just one CHAR.\");\r\n        uint256 tokenId = _tokenIdCounter.current();\r\n        _tokenIdCounter.increment();\r\n        _safeMint(_to, tokenId);\r\n        nftHolderAttributes[tokenId] = defaultCharacters[getRandomNFT()];\r\n        nftHolderAttributes[tokenId].characterIndex = tokenId;\r\n        nftHolders[_to] = tokenId;\r\n    }\r\n\r\n    function tokenURI(uint256 _tokenId)\r\n        public\r\n        view\r\n        override\r\n        returns (string memory)\r\n    {\r\n        CharacterAttributes memory charAttributes = nftHolderAttributes[\r\n            _tokenId\r\n        ];\r\n\r\n        string memory strHp = Strings.toString(charAttributes.hp);\r\n        string memory strMaxHp = Strings.toString(charAttributes.maxHp);\r\n        string memory strAttackDamage = Strings.toString(\r\n            charAttributes.attackDamage\r\n        );\r\n\r\n        string memory json = Base64.encode(\r\n            abi.encodePacked(\r\n                '{\"name\": \"',\r\n                charAttributes.name,\r\n                \" -- NFT #: \",\r\n                Strings.toString(_tokenId),\r\n                '\", \"description\": \"Esta NFT da acesso ao meu jogo NFT!\", \"image\": \"',\r\n                charAttributes.imageURI,\r\n                '\", \"attributes\": [ { \"trait_type\": \"Health Points\", \"value\": ',\r\n                strHp,\r\n                ', \"max_value\":',\r\n                strMaxHp,\r\n                '}, { \"trait_type\": \"Attack Damage\", \"value\": ',\r\n                strAttackDamage,\r\n                \"} ]}\"\r\n            )\r\n        );\r\n\r\n        string memory output = string(\r\n            abi.encodePacked(\"data:application/json;base64,\", json)\r\n        );\r\n\r\n        return output;\r\n    }\r\n\r\n    function receiveDamage(address _from, uint256 damage)\r\n        public\r\n        onlyRole(GAME_ROLE)\r\n    {\r\n        CharacterAttributes storage attributes = nftHolderAttributes[\r\n            nftHolders[_from]\r\n        ];\r\n        if (attributes.hp <= damage) {\r\n            attributes.hp = 0;\r\n        } else {\r\n            attributes.hp -= damage;\r\n        }\r\n    }\r\n\r\n    function healMyCat(address _from) public onlyRole(GAME_ROLE) {\r\n        CharacterAttributes storage attributes = nftHolderAttributes[\r\n            nftHolders[_from]\r\n        ];\r\n        attributes.hp = attributes.maxHp;\r\n    }\r\n\r\n    function getNFT(address _from)\r\n        public\r\n        view\r\n        returns (CharacterAttributes memory char)\r\n    {\r\n        return nftHolderAttributes[nftHolders[_from]];\r\n    }\r\n\r\n    function getNFTAttributesByAddress(address _from)\r\n        public\r\n        view\r\n        returns (uint256 hp, uint256 attackDamage)\r\n    {\r\n        return (\r\n            nftHolderAttributes[nftHolders[_from]].hp,\r\n            nftHolderAttributes[nftHolders[_from]].attackDamage\r\n        );\r\n    }\r\n\r\n    function getRandomNFT() private view returns (uint256 nftRandom) {\r\n        return random() % defaultCharacters.length;\r\n    }\r\n\r\n    function random() private view returns (uint256 randomNumber) {\r\n        return\r\n            uint256(\r\n                keccak256(\r\n                    abi.encodePacked(\r\n                        block.difficulty,\r\n                        block.timestamp,\r\n                        defaultCharacters.length\r\n                    )\r\n                )\r\n            );\r\n    }\r\n\r\n    // The following functions are overrides required by Solidity.\r\n\r\n    function supportsInterface(bytes4 interfaceId)\r\n        public\r\n        view\r\n        override(ERC721, AccessControl)\r\n        returns (bool)\r\n    {\r\n        return super.supportsInterface(interfaceId);\r\n    }\r\n}\r\n",
  "sourcePath": "C:\\lucas_blockchain\\Web3Dev - Bootcamp\\NFT Game bootcamp\\epic-game\\Truffle\\contracts\\Character.sol",
  "compiler": {
    "name": "solc",
    "version": "0.8.17+commit.8df45f5f.Emscripten.clang"
  },
  "schemaVersion": "3.4.10",
  "updatedAt": "2022-11-18T16:09:20.794Z",
  "networkType": "ethereum",
  "devdoc": {
    "kind": "dev",
    "methods": {
      "approve(address,uint256)": {
        "details": "See {IERC721-approve}."
      },
      "balanceOf(address)": {
        "details": "See {IERC721-balanceOf}."
      },
      "getApproved(uint256)": {
        "details": "See {IERC721-getApproved}."
      },
      "getRoleAdmin(bytes32)": {
        "details": "Returns the admin role that controls `role`. See {grantRole} and {revokeRole}. To change a role's admin, use {_setRoleAdmin}."
      },
      "grantRole(bytes32,address)": {
        "details": "Grants `role` to `account`. If `account` had not been already granted `role`, emits a {RoleGranted} event. Requirements: - the caller must have ``role``'s admin role. May emit a {RoleGranted} event."
      },
      "hasRole(bytes32,address)": {
        "details": "Returns `true` if `account` has been granted `role`."
      },
      "isApprovedForAll(address,address)": {
        "details": "See {IERC721-isApprovedForAll}."
      },
      "name()": {
        "details": "See {IERC721Metadata-name}."
      },
      "ownerOf(uint256)": {
        "details": "See {IERC721-ownerOf}."
      },
      "renounceRole(bytes32,address)": {
        "details": "Revokes `role` from the calling account. Roles are often managed via {grantRole} and {revokeRole}: this function's purpose is to provide a mechanism for accounts to lose their privileges if they are compromised (such as when a trusted device is misplaced). If the calling account had been revoked `role`, emits a {RoleRevoked} event. Requirements: - the caller must be `account`. May emit a {RoleRevoked} event."
      },
      "revokeRole(bytes32,address)": {
        "details": "Revokes `role` from `account`. If `account` had been granted `role`, emits a {RoleRevoked} event. Requirements: - the caller must have ``role``'s admin role. May emit a {RoleRevoked} event."
      },
      "safeTransferFrom(address,address,uint256)": {
        "details": "See {IERC721-safeTransferFrom}."
      },
      "safeTransferFrom(address,address,uint256,bytes)": {
        "details": "See {IERC721-safeTransferFrom}."
      },
      "setApprovalForAll(address,bool)": {
        "details": "See {IERC721-setApprovalForAll}."
      },
      "symbol()": {
        "details": "See {IERC721Metadata-symbol}."
      },
      "transferFrom(address,address,uint256)": {
        "details": "See {IERC721-transferFrom}."
      }
    },
    "version": 1
  },
  "userdoc": {
    "kind": "user",
    "methods": {},
    "version": 1
  }
}