{
  "contractName": "Game",
  "abi": [
    {
      "inputs": [
        {
          "internalType": "address",
          "name": "_nftChar",
          "type": "address"
        },
        {
          "internalType": "uint256",
          "name": "_healPrice",
          "type": "uint256"
        },
        {
          "internalType": "uint256",
          "name": "_attackPrice",
          "type": "uint256"
        },
        {
          "internalType": "uint256",
          "name": "_minDamage",
          "type": "uint256"
        },
        {
          "internalType": "string",
          "name": "bossName",
          "type": "string"
        },
        {
          "internalType": "string",
          "name": "bossImageURI",
          "type": "string"
        },
        {
          "internalType": "uint256",
          "name": "bossHp",
          "type": "uint256"
        },
        {
          "internalType": "uint256",
          "name": "bossAttackDamage",
          "type": "uint256"
        }
      ],
      "stateMutability": "nonpayable",
      "type": "constructor"
    },
    {
      "anonymous": false,
      "inputs": [
        {
          "indexed": true,
          "internalType": "address",
          "name": "previousOwner",
          "type": "address"
        },
        {
          "indexed": true,
          "internalType": "address",
          "name": "newOwner",
          "type": "address"
        }
      ],
      "name": "OwnershipTransferred",
      "type": "event"
    },
    {
      "inputs": [],
      "name": "bigBoss",
      "outputs": [
        {
          "internalType": "string",
          "name": "name",
          "type": "string"
        },
        {
          "internalType": "string",
          "name": "imageURI",
          "type": "string"
        },
        {
          "internalType": "uint256",
          "name": "hp",
          "type": "uint256"
        },
        {
          "internalType": "uint256",
          "name": "maxHp",
          "type": "uint256"
        },
        {
          "internalType": "uint256",
          "name": "attackDamage",
          "type": "uint256"
        }
      ],
      "stateMutability": "view",
      "type": "function",
      "constant": true
    },
    {
      "inputs": [],
      "name": "owner",
      "outputs": [
        {
          "internalType": "address",
          "name": "",
          "type": "address"
        }
      ],
      "stateMutability": "view",
      "type": "function",
      "constant": true
    },
    {
      "inputs": [],
      "name": "renounceOwnership",
      "outputs": [],
      "stateMutability": "nonpayable",
      "type": "function"
    },
    {
      "inputs": [
        {
          "internalType": "address",
          "name": "newOwner",
          "type": "address"
        }
      ],
      "name": "transferOwnership",
      "outputs": [],
      "stateMutability": "nonpayable",
      "type": "function"
    },
    {
      "inputs": [],
      "name": "attackBoss",
      "outputs": [],
      "stateMutability": "payable",
      "type": "function",
      "payable": true
    },
    {
      "inputs": [],
      "name": "healMyCat",
      "outputs": [],
      "stateMutability": "payable",
      "type": "function",
      "payable": true
    },
    {
      "inputs": [
        {
          "internalType": "string",
          "name": "bossName",
          "type": "string"
        },
        {
          "internalType": "string",
          "name": "bossImageURI",
          "type": "string"
        },
        {
          "internalType": "uint256",
          "name": "bossHp",
          "type": "uint256"
        },
        {
          "internalType": "uint256",
          "name": "bossAttackDamage",
          "type": "uint256"
        }
      ],
      "name": "createNewBoss",
      "outputs": [],
      "stateMutability": "nonpayable",
      "type": "function"
    },
    {
      "inputs": [],
      "name": "claimPrize",
      "outputs": [],
      "stateMutability": "nonpayable",
      "type": "function"
    },
    {
      "inputs": [
        {
          "internalType": "address",
          "name": "token",
          "type": "address"
        }
      ],
      "name": "setAddressToken",
      "outputs": [],
      "stateMutability": "nonpayable",
      "type": "function"
    },
    {
      "inputs": [],
      "name": "getAddressToken",
      "outputs": [
        {
          "internalType": "address",
          "name": "ad",
          "type": "address"
        }
      ],
      "stateMutability": "view",
      "type": "function",
      "constant": true
    },
    {
      "inputs": [],
      "name": "getBossStatus",
      "outputs": [
        {
          "components": [
            {
              "internalType": "string",
              "name": "name",
              "type": "string"
            },
            {
              "internalType": "string",
              "name": "imageURI",
              "type": "string"
            },
            {
              "internalType": "uint256",
              "name": "hp",
              "type": "uint256"
            },
            {
              "internalType": "uint256",
              "name": "maxHp",
              "type": "uint256"
            },
            {
              "internalType": "uint256",
              "name": "attackDamage",
              "type": "uint256"
            }
          ],
          "internalType": "struct Game.Boss",
          "name": "_boss",
          "type": "tuple"
        }
      ],
      "stateMutability": "view",
      "type": "function",
      "constant": true
    },
    {
      "inputs": [],
      "name": "getHealPrice",
      "outputs": [
        {
          "internalType": "uint256",
          "name": "_healPrice",
          "type": "uint256"
        }
      ],
      "stateMutability": "view",
      "type": "function",
      "constant": true
    },
    {
      "inputs": [],
      "name": "getAttackPrice",
      "outputs": [
        {
          "internalType": "uint256",
          "name": "_attackPrice",
          "type": "uint256"
        }
      ],
      "stateMutability": "view",
      "type": "function",
      "constant": true
    },
    {
      "inputs": [],
      "name": "getRanking",
      "outputs": [
        {
          "components": [
            {
              "internalType": "address",
              "name": "owner",
              "type": "address"
            },
            {
              "internalType": "uint256",
              "name": "damageIndex",
              "type": "uint256"
            }
          ],
          "internalType": "struct Game.DamageOwner[]",
          "name": "_ranking",
          "type": "tuple[]"
        }
      ],
      "stateMutability": "view",
      "type": "function",
      "constant": true
    },
    {
      "inputs": [],
      "name": "getMinDamage",
      "outputs": [
        {
          "internalType": "uint256",
          "name": "_minDamage",
          "type": "uint256"
        }
      ],
      "stateMutability": "view",
      "type": "function",
      "constant": true
    },
    {
      "inputs": [],
      "name": "getWinner",
      "outputs": [
        {
          "internalType": "address",
          "name": "_winner",
          "type": "address"
        }
      ],
      "stateMutability": "view",
      "type": "function",
      "constant": true
    },
    {
      "inputs": [],
      "name": "getTickets",
      "outputs": [
        {
          "internalType": "address[]",
          "name": "_tickets",
          "type": "address[]"
        }
      ],
      "stateMutability": "view",
      "type": "function",
      "constant": true
    }
  ],
  "bytecode": "0x60806040523480156200001157600080fd5b50604051620019aa380380620019aa8339810160408190526200003491620001fc565b6200003f33620000e7565b600680546001600160a01b0319166001600160a01b038a161790556007879055600886905560098590556040805160a081018252858152602081018590529081018390526060810183905260808101829052600180620000a0878262000346565b5060208201516001820190620000b7908262000346565b50604082015181600201556060820151816003015560808201518160040155905050505050505050505062000412565b600080546001600160a01b038381166001600160a01b0319831681178455604051919092169283917f8be0079c531659141344cd1fd0a4f28419497f9722a3daafe3b4186f6b6457e09190a35050565b634e487b7160e01b600052604160045260246000fd5b600082601f8301126200015f57600080fd5b81516001600160401b03808211156200017c576200017c62000137565b604051601f8301601f19908116603f01168101908282118183101715620001a757620001a762000137565b81604052838152602092508683858801011115620001c457600080fd5b600091505b83821015620001e85785820183015181830184015290820190620001c9565b600093810190920192909252949350505050565b600080600080600080600080610100898b0312156200021a57600080fd5b88516001600160a01b03811681146200023257600080fd5b60208a015160408b015160608c015160808d0151939b50919950975095506001600160401b03808211156200026657600080fd5b620002748c838d016200014d565b955060a08b01519150808211156200028b57600080fd5b506200029a8b828c016200014d565b60c08b015160e0909b0151999c989b509699959894979350505050565b600181811c90821680620002cc57607f821691505b602082108103620002ed57634e487b7160e01b600052602260045260246000fd5b50919050565b601f8211156200034157600081815260208120601f850160051c810160208610156200031c5750805b601f850160051c820191505b818110156200033d5782815560010162000328565b5050505b505050565b81516001600160401b0381111562000362576200036262000137565b6200037a81620003738454620002b7565b84620002f3565b602080601f831160018114620003b25760008415620003995750858301515b600019600386901b1c1916600185901b1785556200033d565b600085815260208120601f198616915b82811015620003e357888601518255948401946001909101908401620003c2565b5085821015620004025787850151600019600388901b60f8161c191681555b5050505050600190811b01905550565b61158880620004226000396000f3fe6080604052600436106100fe5760003560e01c8063762fac2811610095578063ba7fb1df11610064578063ba7fb1df1461026e578063c352a34914610283578063d4f24c5b146102a5578063f2fde38b146102ad578063f326e963146102cd57600080fd5b8063762fac28146101d85780638da5cb5b146101f85780638e7ea5b21461022a578063a9c326791461024857600080fd5b806353c7db7b116100d157806353c7db7b1461017a57806357c9845c1461019957806370740ac9146101ae578063715018a6146101c357600080fd5b80631398bbf71461010357806332fd22331461012e5780634ed026221461013857806353a77b7c1461015a575b600080fd5b34801561010f57600080fd5b506101186102e2565b6040516101259190611044565b60405180910390f35b610136610357565b005b34801561014457600080fd5b5061014d610455565b604051610125919061109c565b34801561016657600080fd5b5061013661017536600461118c565b6104b7565b34801561018657600080fd5b506008545b604051908152602001610125565b3480156101a557600080fd5b5060075461018b565b3480156101ba57600080fd5b50610136610556565b3480156101cf57600080fd5b506101366105e7565b3480156101e457600080fd5b506101366101f3366004611200565b6105fb565b34801561020457600080fd5b506000546001600160a01b03165b6040516001600160a01b039091168152602001610125565b34801561023657600080fd5b50600a546001600160a01b0316610212565b34801561025457600080fd5b5061025d610625565b604051610125959493929190611276565b34801561027a57600080fd5b50610212610757565b34801561028f57600080fd5b50610298610771565b60405161012591906112b9565b6101366108f7565b3480156102b957600080fd5b506101366102c8366004611200565b610e22565b3480156102d957600080fd5b5060095461018b565b6060600c805480602002602001604051908101604052809291908181526020016000905b8282101561034e576000848152602090819020604080518082019091526002850290910180546001600160a01b03168252600190810154828401529083529092019101610306565b50505050905090565b60075434146103bb5760405162461bcd60e51b815260206004820152602560248201527f596f752073656e642074686520696e636f727265637420616d6f756e7420746f604482015264081a19585b60da1b60648201526084015b60405180910390fd5b600080546040516001600160a01b03909116913480156108fc02929091818181858888f193505050501580156103f5573d6000803e3d6000fd5b5060065460405163342d485560e21b81523360048201526001600160a01b039091169063d0b5215490602401600060405180830381600087803b15801561043b57600080fd5b505af115801561044f573d6000803e3d6000fd5b50505050565b6060600d8054806020026020016040519081016040528092919081815260200182805480156104ad57602002820191906000526020600020905b81546001600160a01b0316815260019091019060200180831161048f575b5050505050905090565b6104bf610e98565b600354156105055760405162461bcd60e51b8152602060048201526013602482015272426f7373206469646e7420646965207965742160681b60448201526064016103b2565b600a80546001600160a01b0319169055600161052185826113a6565b50600261052e84826113a6565b5060048290556003829055600581905561054a600d6000610fc6565b61044f600c6000610fe4565b600a546001600160a01b031633146105a85760405162461bcd60e51b81526020600482015260156024820152742cb7ba93b932903737ba103a3432903bb4b73732b960591b60448201526064016103b2565b600a80546001600160a01b031916905560405133904780156108fc02916000818181858888f193505050501580156105e4573d6000803e3d6000fd5b50565b6105ef610e98565b6105f96000610ef2565b565b610603610e98565b600680546001600160a01b0319166001600160a01b0392909216919091179055565b6001805481906106349061131d565b80601f01602080910402602001604051908101604052809291908181526020018280546106609061131d565b80156106ad5780601f10610682576101008083540402835291602001916106ad565b820191906000526020600020905b81548152906001019060200180831161069057829003601f168201915b5050505050908060010180546106c29061131d565b80601f01602080910402602001604051908101604052809291908181526020018280546106ee9061131d565b801561073b5780601f106107105761010080835404028352916020019161073b565b820191906000526020600020905b81548152906001019060200180831161071e57829003601f168201915b5050505050908060020154908060030154908060040154905085565b6000610761610e98565b506006546001600160a01b031690565b6107a36040518060a0016040528060608152602001606081526020016000815260200160008152602001600081525090565b60016040518060a00160405290816000820180546107c09061131d565b80601f01602080910402602001604051908101604052809291908181526020018280546107ec9061131d565b80156108395780601f1061080e57610100808354040283529160200191610839565b820191906000526020600020905b81548152906001019060200180831161081c57829003601f168201915b505050505081526020016001820180546108529061131d565b80601f016020809104026020016040519081016040528092919081815260200182805461087e9061131d565b80156108cb5780601f106108a0576101008083540402835291602001916108cb565b820191906000526020600020905b8154815290600101906020018083116108ae57829003601f168201915b505050505081526020016002820154815260200160038201548152602001600482015481525050905090565b600080600854341461095c5760405162461bcd60e51b815260206004820152602860248201527f596f752073656e642074686520696e636f727265637420616d6f756e7420746f6044820152671030ba3a30b1b59760c11b60648201526084016103b2565b6006546040516370a0823160e01b81523360048201526000916001600160a01b0316906370a0823190602401602060405180830381865afa1580156109a5573d6000803e3d6000fd5b505050506040513d601f19601f820116820180604052508101906109c99190611466565b11610a165760405162461bcd60e51b815260206004820152601760248201527f596f7520646f6e74206861766520616e7920434841522e00000000000000000060448201526064016103b2565b600354610a655760405162461bcd60e51b815260206004820152601960248201527f4572726f723a20426f73736073204850206973207a65726f2e0000000000000060448201526064016103b2565b6006546040516301f37cb960e41b81523360048201526001600160a01b0390911690631f37cb909060240160408051808303816000875af1158015610aae573d6000803e3d6000fd5b505050506040513d601f19601f82011682018060405250810190610ad2919061147f565b909250905081610b245760405162461bcd60e51b815260206004820152601a60248201527f4572726f723a20506c6179657273204850206973207a65726f2e00000000000060448201526064016103b2565b60065460055460405163159aa61360e21b815233600482015260248101919091526001600160a01b039091169063566a984c90604401600060405180830381600087803b158015610b7457600080fd5b505af1158015610b88573d6000803e3d6000fd5b50506006546040516301f37cb960e41b81523360048201526001600160a01b039091169250631f37cb90915060240160408051808303816000875af1158015610bd5573d6000803e3d6000fd5b505050506040513d601f19601f82011682018060405250810190610bf9919061147f565b90925090508115610e1e576003548110610c245750600380546000909155610c1f610f42565b610c36565b600354610c329082906114b9565b6003555b336000818152600b602052604090206001810154905490916001600160a01b039091169081148015610c695750600c5482105b8015610ca95750336001600160a01b0316600c8381548110610c8d57610c8d6114d2565b60009182526020909120600290910201546001600160a01b0316145b15610d0157336000908152600b6020526040902060010154600c80548592908110610cd657610cd66114d2565b90600052602060002090600202016001016000828254610cf691906114e8565b90915550610daf9050565b336000818152600b6020908152604080832080546001600160a01b031990811686178255600c805460019384018190558451808601909552968452938301898152918601845592909352517fdf6966c971051c3d54ec59162606531493a51404a002842f56009d7e5cf4a8c7600290940293840180549092166001600160a01b03909116179055517fdf6966c971051c3d54ec59162606531493a51404a002842f56009d7e5cf4a8c8909101555b60005b600954610dbf9085611511565b811015610e1a57600d80546001810182556000919091527fd7b6990105719101dabeb77144f2a3385c8033acd3af97e9423a695e81ad1eb50180546001600160a01b0319163317905580610e1281611525565b915050610db2565b5050505b5050565b610e2a610e98565b6001600160a01b038116610e8f5760405162461bcd60e51b815260206004820152602660248201527f4f776e61626c653a206e6577206f776e657220697320746865207a65726f206160448201526564647265737360d01b60648201526084016103b2565b6105e481610ef2565b6000546001600160a01b031633146105f95760405162461bcd60e51b815260206004820181905260248201527f4f776e61626c653a2063616c6c6572206973206e6f7420746865206f776e657260448201526064016103b2565b600080546001600160a01b038381166001600160a01b0319831681178455604051919092169283917f8be0079c531659141344cd1fd0a4f28419497f9722a3daafe3b4186f6b6457e09190a35050565b600d546040805144602080830191909152428284015260608083018590528351808403909101815260809092019092528051910120600091610f839161153e565b9050600d8181548110610f9857610f986114d2565b600091825260209091200154600a80546001600160a01b0319166001600160a01b0390921691909117905550565b50805460008255906000526020600020908101906105e49190611005565b50805460008255600202906000526020600020908101906105e4919061101e565b5b8082111561101a5760008155600101611006565b5090565b5b8082111561101a5780546001600160a01b03191681556000600182015560020161101f565b602080825282518282018190526000919060409081850190868401855b8281101561108f57815180516001600160a01b03168552860151868501529284019290850190600101611061565b5091979650505050505050565b6020808252825182820181905260009190848201906040850190845b818110156110dd5783516001600160a01b0316835292840192918401916001016110b8565b50909695505050505050565b634e487b7160e01b600052604160045260246000fd5b600082601f83011261111057600080fd5b813567ffffffffffffffff8082111561112b5761112b6110e9565b604051601f8301601f19908116603f01168101908282118183101715611153576111536110e9565b8160405283815286602085880101111561116c57600080fd5b836020870160208301376000602085830101528094505050505092915050565b600080600080608085870312156111a257600080fd5b843567ffffffffffffffff808211156111ba57600080fd5b6111c6888389016110ff565b955060208701359150808211156111dc57600080fd5b506111e9878288016110ff565b949794965050505060408301359260600135919050565b60006020828403121561121257600080fd5b81356001600160a01b038116811461122957600080fd5b9392505050565b6000815180845260005b818110156112565760208185018101518683018201520161123a565b506000602082860101526020601f19601f83011685010191505092915050565b60a08152600061128960a0830188611230565b828103602084015261129b8188611230565b60408401969096525050606081019290925260809091015292915050565b602081526000825160a060208401526112d560c0840182611230565b90506020840151601f198483030160408501526112f28282611230565b9150506040840151606084015260608401516080840152608084015160a08401528091505092915050565b600181811c9082168061133157607f821691505b60208210810361135157634e487b7160e01b600052602260045260246000fd5b50919050565b601f8211156113a157600081815260208120601f850160051c8101602086101561137e5750805b601f850160051c820191505b8181101561139d5782815560010161138a565b5050505b505050565b815167ffffffffffffffff8111156113c0576113c06110e9565b6113d4816113ce845461131d565b84611357565b602080601f83116001811461140957600084156113f15750858301515b600019600386901b1c1916600185901b17855561139d565b600085815260208120601f198616915b8281101561143857888601518255948401946001909101908401611419565b50858210156114565787850151600019600388901b60f8161c191681555b5050505050600190811b01905550565b60006020828403121561147857600080fd5b5051919050565b6000806040838503121561149257600080fd5b505080516020909101519092909150565b634e487b7160e01b600052601160045260246000fd5b818103818111156114cc576114cc6114a3565b92915050565b634e487b7160e01b600052603260045260246000fd5b808201808211156114cc576114cc6114a3565b634e487b7160e01b600052601260045260246000fd5b600082611520576115206114fb565b500490565b600060018201611537576115376114a3565b5060010190565b60008261154d5761154d6114fb565b50069056fea2646970667358221220c4743a6e6c0a6fc0850feecab8648afd29f4b7540f354898cf1c6d5935b9553864736f6c63430008110033",
  "immutableReferences": {},
  "source": "// SPDX-License-Identifier: MIT\r\npragma solidity 0.8.17;\r\n\r\nimport \"@openzeppelin/contracts/access/Ownable.sol\";\r\nimport \"@openzeppelin/contracts/token/ERC721/IERC721.sol\";\r\n\r\ninterface IERC727Game is IERC721 {\r\n    function receiveDamage(address _from, uint256 damage) external;\r\n\r\n    function healMyCat(address _from) external;\r\n\r\n    function getNFTAttributesByAddress(address _from)\r\n        external\r\n        returns (uint256, uint256);\r\n}\r\n\r\ncontract Game is Ownable {\r\n    struct Boss {\r\n        string name;\r\n        string imageURI;\r\n        uint256 hp;\r\n        uint256 maxHp;\r\n        uint256 attackDamage;\r\n    }\r\n\r\n    struct DamageOwner {\r\n        address owner;\r\n        uint256 damageIndex;\r\n    }\r\n\r\n    // Current Initialized Boss\r\n    Boss public bigBoss;\r\n\r\n    // NFT address\r\n    IERC727Game private charToken;\r\n\r\n    // Config variables\r\n    uint256 healPrice;\r\n    uint256 attackPrice;\r\n    uint256 minDamage;\r\n    address winner;\r\n\r\n    mapping(address => DamageOwner) damageIndex;\r\n    DamageOwner[] damageDealt;\r\n    address[] tickets;\r\n\r\n    constructor(\r\n        address _nftChar,\r\n        uint256 _healPrice,\r\n        uint256 _attackPrice,\r\n        uint256 _minDamage,\r\n        string memory bossName,\r\n        string memory bossImageURI,\r\n        uint256 bossHp,\r\n        uint256 bossAttackDamage\r\n    ) {\r\n        charToken = IERC727Game(_nftChar);\r\n        healPrice = _healPrice;\r\n        attackPrice = _attackPrice;\r\n        minDamage = _minDamage;\r\n        bigBoss = Boss({\r\n            name: bossName,\r\n            imageURI: bossImageURI,\r\n            hp: bossHp,\r\n            maxHp: bossHp,\r\n            attackDamage: bossAttackDamage\r\n        });\r\n    }\r\n\r\n    function attackBoss() public payable {\r\n        uint256 hp;\r\n        uint256 attackDamage;\r\n        require(\r\n            msg.value == attackPrice,\r\n            \"You send the incorrect amount to attack.\"\r\n        );\r\n        require(charToken.balanceOf(msg.sender) > 0, \"You dont have any CHAR.\");\r\n        require(bigBoss.hp > 0, \"Error: Boss`s HP is zero.\");\r\n\r\n        (hp, attackDamage) = charToken.getNFTAttributesByAddress(msg.sender);\r\n\r\n        require(hp > 0, \"Error: Players HP is zero.\");\r\n\r\n        charToken.receiveDamage(msg.sender, bigBoss.attackDamage);\r\n\r\n        (hp, attackDamage) = charToken.getNFTAttributesByAddress(msg.sender);\r\n\r\n        if (hp > 0) {\r\n            if (bigBoss.hp <= attackDamage) {\r\n                //If boss hp is smaller than attack, change attack power to bigboss hp.\r\n                attackDamage = bigBoss.hp;\r\n                bigBoss.hp = 0;\r\n                getRandomTicket();\r\n            } else {\r\n                bigBoss.hp = bigBoss.hp - attackDamage;\r\n            }\r\n\r\n            uint256 _index = damageIndex[msg.sender].damageIndex;\r\n            address _damageOwner = damageIndex[msg.sender].owner;\r\n\r\n            // If this sender alread dealt some damage, add more damage\r\n            if (\r\n                _damageOwner == msg.sender &&\r\n                damageDealt.length > _index &&\r\n                damageDealt[_index].owner == msg.sender\r\n            ) {\r\n                damageDealt[damageIndex[msg.sender].damageIndex]\r\n                    .damageIndex += attackDamage;\r\n                // If its the first time, create a new index for this player\r\n            } else {\r\n                damageIndex[msg.sender].owner = msg.sender;\r\n                damageIndex[msg.sender].damageIndex = damageDealt.length;\r\n                damageDealt.push(DamageOwner(msg.sender, attackDamage));\r\n            }\r\n\r\n            // Add tickets count for each minDamage that player dealt\r\n            for (uint256 i = 0; i < attackDamage / minDamage; i++) {\r\n                tickets.push(msg.sender);\r\n            }\r\n        }\r\n    }\r\n\r\n    function healMyCat() public payable {\r\n        require(\r\n            msg.value == healPrice,\r\n            \"You send the incorrect amount to heal\"\r\n        );\r\n        payable(owner()).transfer(msg.value);\r\n        charToken.healMyCat(msg.sender);\r\n    }\r\n\r\n    function createNewBoss(\r\n        string memory bossName,\r\n        string memory bossImageURI,\r\n        uint256 bossHp,\r\n        uint256 bossAttackDamage\r\n    ) public onlyOwner {\r\n        require(bigBoss.hp == 0, \"Boss didnt die yet!\");\r\n        winner = address(0);\r\n        bigBoss.name = bossName;\r\n        bigBoss.imageURI = bossImageURI;\r\n        bigBoss.maxHp = bossHp;\r\n        bigBoss.hp = bossHp;\r\n        bigBoss.attackDamage = bossAttackDamage;\r\n\r\n        // Resets config variables\r\n        delete tickets;\r\n        delete damageDealt;\r\n    }\r\n\r\n    function claimPrize() public {\r\n        require(msg.sender == winner, \"You're not the winner\");\r\n        delete winner;\r\n        payable(msg.sender).transfer(address(this).balance);\r\n    }\r\n\r\n    function getRandomTicket() private {\r\n        uint256 _index = random() % tickets.length;\r\n        winner = tickets[_index];\r\n    }\r\n\r\n    function setAddressToken(address token) public onlyOwner {\r\n        charToken = IERC727Game(token);\r\n    }\r\n\r\n    function getAddressToken() public view onlyOwner returns (address ad) {\r\n        return address(charToken);\r\n    }\r\n\r\n    function getBossStatus() public view returns (Boss memory _boss) {\r\n        return bigBoss;\r\n    }\r\n\r\n    function getHealPrice() public view returns (uint256 _healPrice) {\r\n        return healPrice;\r\n    }\r\n\r\n    function getAttackPrice() public view returns (uint256 _attackPrice) {\r\n        return attackPrice;\r\n    }\r\n\r\n    function getRanking() public view returns (DamageOwner[] memory _ranking) {\r\n        return damageDealt;\r\n    }\r\n\r\n    function getMinDamage() public view returns (uint256 _minDamage) {\r\n        return minDamage;\r\n    }\r\n\r\n    function getWinner() public view returns (address _winner) {\r\n        return winner;\r\n    }\r\n\r\n    function getTickets() public view returns (address[] memory _tickets) {\r\n        return tickets;\r\n    }\r\n\r\n    function random() private view returns (uint256 randomNumber) {\r\n        return\r\n            uint256(\r\n                keccak256(\r\n                    abi.encodePacked(\r\n                        block.difficulty,\r\n                        block.timestamp,\r\n                        tickets.length\r\n                    )\r\n                )\r\n            );\r\n    }\r\n}\r\n",
  "sourcePath": "C:\\lucas_blockchain\\Web3Dev - Bootcamp\\NFT Game bootcamp\\epic-game\\Truffle\\contracts\\Game.sol",
  "compiler": {
    "name": "solc",
    "version": "0.8.17+commit.8df45f5f.Emscripten.clang"
  },
  "schemaVersion": "3.4.10",
  "updatedAt": "2022-11-18T16:09:20.804Z",
  "networkType": "ethereum",
  "devdoc": {
    "kind": "dev",
    "methods": {
      "owner()": {
        "details": "Returns the address of the current owner."
      },
      "renounceOwnership()": {
        "details": "Leaves the contract without owner. It will not be possible to call `onlyOwner` functions anymore. Can only be called by the current owner. NOTE: Renouncing ownership will leave the contract without an owner, thereby removing any functionality that is only available to the owner."
      },
      "transferOwnership(address)": {
        "details": "Transfers ownership of the contract to a new account (`newOwner`). Can only be called by the current owner."
      }
    },
    "version": 1
  },
  "userdoc": {
    "kind": "user",
    "methods": {},
    "version": 1
  }
}